:1080000012828101000300000000001C401C801C43
:10801000C01CA101FFFF0000FFFFCC00869A0000FA
:108020002109FFFF0000FFFFCC007A9900008106C4
:10803000FF220000FFFFDC00289A00008106FF21DC
:108040000000FFFFDC00C29A0000000101000000F8
:108050000000FF002E9B000002010000FF00000056
:10806000F7001A9700008008000000000100FF00E0
:10807000CA9B00008006FF01FFFFFFFFD000769B38
:1080800000008006FF02FFFFFFFFD0008C9B000076
:108090008006FF03FFFFFFFFD000B8950000810AB4
:1080A0000000FFFF0100F300689A0000800000005C
:1080B00000000200FF002699000081000000FF0080
:1080C0000200F700A49A000082000000FF000200F6
:1080D000F7005C9200000005FF0000000000DF00D8
:1080E000489A00000009FF0000000000DF00C4996A
:1080F00000000003FF0000000000DF005E9B0000A6
:108100000203FF00FF000000D70052960000010BA1
:10811000FF00FF000000D700149C0000FFFFFFFFDE
:10812000FFFFFFFF0000349C00002412010002004A
:10813000000008D8040F0001000102030109022910
:1081400000010104809609040000020300000509F3
:1081500021010100012224000705810340000107DD
:10816000050103400001040309042C0356006E00BE
:1081700065006C0065006B00740072006F006E009B
:10818000690063007300200043006F002E002C0084
:108190004C0074006400140356006E0065006C000F
:1081A00065006B00340033003000040330004803E6
:1081B00056006E0065006C0065006B007400720074
:1081C0006F006E00690063007300200050007200B1
:1081D0006F006700720061006D006D006500720045
:1081E000200066006F00720020004D005300500018
:1081F0003400330030001C034800490044002000D4
:1082000049006E0074006500720066006100630042
:1082100065000600FF0901A101853F953F7508250E
:1082200001150109018102853F953F75082501155A
:108230000109019102C0314000343C4000243D401E
:108240008301B013DE9BB013C48DB013A09C5F15E7
:108250004A43E2B23E090528B013DA964A4CE2C21C
:108260003E091F4232093FF03F00E00F843C1E3CB4
:10827000823C813C1D3C233C2B3C7D3C7C3C313C86
:10828000333C353C3D3C463C763C753C4E3C733C77
:10829000553C713C703C6F3C6E3C6D3C6C3C563CBC
:1082A0006A3C693C683C673C663C653C0343633C14
:1082B00092B328246028B013909C4A4C5C3CB013C5
:1082C0006A98A2B328245728B013B69B4A4C533C53
:1082D000B0139896A2B228244E28B013649C4A4C3E
:1082E0004A3CB013E09A473CB0135897443CB01353
:1082F000D689B2B228243F28B013A89C4A4C3B3CF4
:10830000B0133898B2B0100028243528B013849CDC
:108310004A4C313CB013469BB2B0200028240328BD
:10832000B013889C4A4C5A43263CF24080002109F5
:10833000F24080002309B013DA961D3C4C43B01381
:108340009A880A12C14C00003A41153C4C43B013C4
:10835000A29B0C930920B2B0400028240C284C4367
:10836000B013549C4A4C073C4C43B013E2860A12AB
:10837000C14C00003A414A930424B1C0D0000C0023
:1083800003435A1700133F151F429A01E00F043CA4
:10839000053C063C0B3C0C3C03430E3C03430C3CAD
:1083A000B2F0F4FF6E01A2C30201063C0343043C99
:1083B00082439801B013E6993C1700133B154A4ECF
:1083C0004F4A5F0E5B4F04800D9302240C930320F1
:1083D0007C400700843D084238F232C20343C29316
:1083E00080250320D2938125032402D87C42773D47
:1083F0004F4A5F0E8F930824042402D87C40060065
:108400006E3D4F4A5F0E8F4D0C244F4A5F0E8F4DCD
:108410000E244F4A5F0E8F4C08244F4A5F0EDF93A5
:10842000162488284E4A4F4A5F0E1D4F10244F4A8B
:108430005F0E1C4F0A24B013C6914F4A5F0E8F93F4
:108440000E240B204F4A5F0E8F4308244C4AB01372
:10845000989C02D87C400500423D4F4A5F0E4E4B2F
:108460005E0A3E508A238F9E102410204F4B5F0AD5
:108470003F508E234E4A5E0E8E4F10244F4A5F0EA1
:108480004E4A5E0E9E4F0C800A240F3C4F4B5F0AF3
:108490003F508A234E4A5E0E8E4F10244F4A5F0E85
:1084A0004E4A5E0E9E4F0A800A244F4A5F0E1F4FAF
:1084B00010246E4F4E932A347EC080004F4A5F0EC8
:1084C0001F4F0A244D4A5D0EDD4F010016244D4E0C
:1084D0003D50FEFF4F4A5F0E5F4F16244F4F0D9FDA
:1084E00006347E50FE004F4A5F0ECF4E16244F4A90
:1084F0005F0EAF530A244E4A4F4A5F0E1D4F1024A1
:108500004F4A5F0E1C4F0A24B013C6914F4A5F0EAC
:108510008F930E240F204F4A5F0E8F430824B2B072
:108520000001282403284C4AB013989C02D87C40B0
:108530000500D53C4E434F4A5F0ECF9317242520AC
:108540004F4B5F0ACF938A2344344F4A5F0E4E4A03
:108550005E0E9E4F0A800A244F4B5F0A3F508A23CB
:108560004E4A5E0E8E4F10244F4A5F0E4E4A5E0EEC
:108570009E4F0C8014244B4B5B0A3B508E234F4A7A
:108580005F0E8F4B12245E43243C4F4B5F0ACF9308
:108590008E231F344F4A5F0E4E4A5E0E9E4F0C8054
:1085A0000A244F4B5F0A3F508E234E4A5E0E8E4F79
:1085B00010244F4A5F0E4E4A5E0E9E4F0A801424CE
:1085C0004B4B5B0A3B508A234F4A5F0E8F4B122462
:1085D0005E434E936E244F4A5F0E1F4F10246E4F22
:1085E0004E9367347EC080004F4A5F0E1F4F0A24AF
:1085F0004B4A5B0EDB4F010016244B4E3B50FEFFF7
:108600004F4A5F0E5F4F16244F4F0B9F06347E502C
:10861000FE004F4A5F0ECF4E16244F4A5F0EAF53F7
:108620000A244E4A4F4A5F0E1D4F10244F4A5F0ED8
:108630001C4F0A24B013C6914F4A5F0E1F4F1224DD
:108640006E4F4F4A5F0E8F930E2433244E93313476
:108650007EC080004F4A5F0E1F4F14244B4A5B0EB2
:10866000DB4F010016244B4E3B50FEFF4F4A5F0E7E
:108670005F4F16244F4F0B9F06347E50FE004F4A2B
:108680005F0ECF4E16244F4A5F0EAF5314244E4A4E
:108690004F4A5F0E1D4F12244F4A5F0E1C4F142489
:1086A000B013C6914F4A5F0E4B4A5B0E9B4F12248C
:1086B00010244F4A5F0E8F930E240F204F4A5F0EF7
:1086C0008F430824B2B00001282403284C4AB01379
:1086D000989C02D87C400500023C02D86C423817B6
:1086E00010013B154A4C4B434F4A5F0E5E4F0480CE
:1086F0004F4A5F0E8F930E2406204A4A5A0E8A4331
:1087000008244C4BC83C4F4E5F0A4D4E5D0A5D4DF0
:108710008A235DDF8E237DB0800002204C4BBB3C62
:108720004F4A5F0ECF9317241C204F4A5F0E184FFD
:108730000A804F4E5F0A3F508A234D4A5D0E8D4F8F
:1087400010244F4A5F0E4D4A5D0E9D4F0C8014243D
:108750004E4E5E0A3E508E234F4A5F0E8F4E1224BD
:108760001B3C4F4A5F0E184F0C804F4E5F0A3F5024
:108770008E234D4A5D0E8D4F10244F4A5F0E4D4A99
:108780005D0E9D4F0A8014244E4E5E0A3E508A2391
:108790004F4A5F0E8F4E12244F4A5F0E1F4F102418
:1087A0006E4F4E9359347EC080004F4A5F0EDF48B3
:1087B000010016244D4E3D50FEFF4F4A5F0E5F4FA5
:1087C00016244F4F0D9F06347E50FE004F4A5F0E19
:1087D000CF4E162428534E4A4F4A5F0E1D4F102489
:1087E0000C48B013C6914F4A5F0E1F4F12246E4FB4
:1087F0004F4A5F0E8F930E242F244E932D347EC04C
:1088000080004F4A5F0EDF48010016244D4E3D5058
:10881000FEFF4F4A5F0E5F4F16244F4F0D9F0634E9
:108820007E50FE004F4A5F0ECF4E16244F4A5F0E19
:10883000AF5314244E4A4F4A5F0E1D4F12244F4A25
:108840005F0E1C4F1424B013C6914F4A5F0E4E4A60
:108850005E0E9E4F122410244F4A5F0E8F930E24FB
:1088600019204F4A5F0E8F430824B2B0000128241C
:1088700004284C4AB013989C4B4C4F4A5F0ECF9340
:1088800016240824B2B04000282404284C4AB0130F
:10889000549C4B4C4C4B381710017B154A4C4B43A6
:1088A0004F4A5F0E584F04804F4A5F0A8F9302244D
:1088B0000D204F4A5F0A8F430024C29328240434BA
:1088C0004C4AB013949C4B4C4C4B833C4F485F0A32
:1088D000FFB02000C823112C4F4A5F0E144F0E80AA
:1088E0004948590A3950CA234F4A5F0E174F108022
:1088F0004848580A3850CE23103C4F4A5F0E144F58
:1089000010804948590A3950CE234F4A5F0E174FFD
:108910000E804848580A3850CA234F4A5F0ABF9011
:108920003F000224032876403E00043C4F4A5F0A81
:10893000564F02246E494E934B344E464F4A5F0ABF
:108940001D4F04240C442C5380131824F4403F0082
:108950000000C4460100F940400000004F4A5F0A91
:1089600046468F8602244F4A5F0A46468F560424A5
:108970006E484F4A5F0A8F9302242A244E9328346C
:108980004F4A5F0ABF903F000224032876403E0012
:10899000043C4F4A5F0A564F02244E464F4A5F0A34
:1089A0001D4F04240C472C5380131824F7403F001C
:1089B0000000C7460100F840400000004F4A5F0A2F
:1089C00046468F8602244A4A5A0A46468A56042454
:1089D0004C4B741710010A12B24028960009C2438A
:1089E0008125C2438025C2438225C2436C25C243F0
:1089F0006D25C2433C09B2432024B2432224C24322
:108A00007F25C2433F09F24080002109F2408000E7
:108A10002309F2408C002009F2408C002209F24028
:108A200003002F09F24003002E090D43573C0F4D60
:108A30005F0E5E4F04804F4E5F0AFF409400C823D4
:108A40000F4D5F0E1F4F0E803F5000E45F0B4C4EEA
:108A50005C0ACC4FC9230F4D5F0E1F4F10803F5053
:108A600000E45F0B4A4E5A0ACA4FCD234F4E5F0AAD
:108A7000FF408000CA234F4E5F0AFF408000CE2394
:108A80004F4E5F0AFF404000CF234F4E5F0AFF402A
:108A9000940088230F4D5F0E1F4F0A803F5000E463
:108AA0005F0B4A4E5A0ACA4F89230F4D5F0E1F4F64
:108AB0000C803F5000E45F0B4A4E5A0ACA4F8D2388
:108AC0004F4E5F0ACF438A234F4E5F0ACF438E2318
:108AD0004E4E5E0AFE4040008F231D531D93A73B60
:108AE000B0135099F24040003C09C2433E09F240A5
:108AF000C4003D09B240009600094C433A411001C0
:108B00001B154D430A423AF24F4C5F0E5E4F0480F4
:108B100032C20343C29380250320D29381250324CC
:108B200002DA4C436D3C4F4C5F0EDF9316242B282A
:108B30004F4C5F0E5D4F16244F4C5F0E1F4F12249B
:108B4000CF9300005B344F4C5F0E1F4F14245F4FD8
:108B500001004B4C5B0E1B4B12246E4B4E4E3EF0F5
:108B60007F003E50FEFF4F4F0E9F0B344C4C5C0E6F
:108B70001F4C12246E4F7EF07F007E50FE004D5E33
:108B80003D3C4D5F3B3C4F4E5F0ACF938A231534EB
:108B90004F4E5F0A5F4F8A237FF07F004B4C5B0E86
:108BA0001B4B0A805D4B01004B4F3B50FEFF4D4D70
:108BB0000B9D03344D4F7D50FE004F4E5F0ACF9307
:108BC0008E231C344E4E5E0A5F4E8E237FF07F0054
:108BD0004B4C5B0E1B4B0C805E4B01004E4E4B4FC3
:108BE0003B50FEFF0E9B07344C4C5C0E1F4C0C8020
:108BF0005D5F0100033C7F50FE004D5F02DA4C4D8B
:108C00001A1710010A120E430A423AF0400032C00D
:108C100040003F4000103C90813E03285D031E430E
:108C2000053C0C5C033C3F5000105D033D9001028D
:108C3000FA2F82436001B2F000FC64013D530FDD66
:108C4000824F64013C907702032C82436201333CE3
:108C50003C90E204042CB240100062012C3C3C9099
:108C6000C409042CB24020006201253C3C908813CA
:108C7000042CB240300062011E3C3C901027042CB2
:108C8000B24040006201173C3C90204E042CB240A0
:108C900050006201103C3C90409C042CB2406000AB
:108CA0006201093CB24070006201053CB2F0F4FF81
:108CB0006E01A2C30201A2B30201F82F1E93092084
:108CC0001F4268013FF088FF3FD03300824F6801A8
:108CD000083C1F4268013FF088FF3FD04400824FAC
:108CE000680102DA3A4110011B15F240A50021018A
:108CF0001E422E01B2F088CC2E011D4224011A42E0
:108D0000260182432C014F4C3FD00044824F240166
:108D1000B2B010002C01FC2BB2C010002C01B2B07C
:108D200020002C011228B2C010002C01824D240119
:108D3000B2B010002C01FC2BB2F088FF2C01824E47
:108D40002E01C24321011C433B3C4F4C3FF0FF002E
:108D50008F1082DF2401B2B010002C01FC2BB2C0B6
:108D600010002C01C24C20014F4C4C4C3CF0FF0039
:108D70008C100FDC3FD00044824F260192B32C01AF
:108D8000FD2B92C32C01B2F0070326013AF0F8FC48
:108D900082DA2601B2F0070324013DF0F8FC82DDFF
:108DA000240192B32C01042CB2B010002C01F92B39
:108DB000B2F088FF2C01824E2E01C24321010C43E8
:108DC0001A1710011B154A434B43B240805A5C01ED
:108DD000B01306987C400300B0130696B013CE97EC
:108DE000D2D30402B013BE943C407E01B0134C9C1D
:108DF000B013CA985CB30828B013EE924C930420C9
:108E0000B013D689B013FA9A32D2B01330917C8065
:108E100080002E245C83F9275C83F7275C8307247A
:108E20005C832A246C832E245C832924EE3F32D079
:108E300018000343C2936B24E827C2436B244E43BC
:108E40003D4000013C406C24B01394973C903F009F
:108E50000320D2D30202023CD2C302020312131235
:108E60004E430D4C3C406C24B01352942152CD3FE4
:108E700032D0D8000343C93F32D0D800C63F32D0E9
:108E8000D800C33F0343C13F03430A1221825A4320
:108E9000814300004A4AFA40030083255A530F4198
:108EA0000E412E534D437C42B0136895C19302008E
:108EB0000B20E24283254A4ACA4383255A534A4A31
:108EC000CA4383255A533F3C4E430D3C7F503700E5
:108ED0004A4ACA4F83255A534A4ACA4383255A539A
:108EE0005E53915300005E910200282C7E92262C46
:108EF0002F416F4F43194F107F900A00072C7F506E
:108F000030004A4ACA4F83255A53063C7F503700E7
:108F10004A4ACA4F83255A534A4ACA4383255A5359
:108F20002F416F4F7FF00F007F900A00CF2F7F50AF
:108F300030004A4ACA4F83255A53CE3F41184E5EED
:108F40006E53C24E832521523A4110013B154C43CA
:108F50003B4080233A401280023C3A5006006E4A61
:108F60001A536F4A1A537E9302207F930824F2907B
:108F7000C00080230424F2904000802306203A5051
:108F8000FEFFD2B33E092328343C5E9280231C208E
:108F90005F92812319207D40C0007E4020006F43F6
:108FA0000B3C4F4F084B085FE89A000001204DDE54
:108FB0001A5340194E105F537F92F32B6DFA6D9A3E
:108FC000CC233A50F8FFDD3F3A500C00C83F0B4A23
:108FD0001A4B0A001B4B0C00B013AC9C3A90489AF9
:108FE00008203B9000000520C2933F090224B013E3
:108FF0008C9C381710013B15F240A50021011F423F
:109000002E01B2F088CC2E011E4224011D42260101
:10901000B2F0CCFF2C014A4C4B4C3BF0FF008B10C4
:109020000ADB3AD00044824A24014B4C4A4C3AF0C5
:10903000FF008A100BDA3BD00044824B2601B2B00D
:1090400010002C01FC2B92B32C01F92BB2F0EEFF97
:109050002C01C24C2001B2F0070326013DF0F8FCC0
:1090600082DD2601B2F0070324013EF0F8FC82DE27
:10907000240192B32C01042CB2B010002C01F92B66
:10908000B2F088FF2C01824F2E01C24321010C4314
:10909000381710015B150A4E4F438D4300008A4379
:1090A00000004B4C5B0E5E4B04800B423BF232C225
:1090B0000343484C580A889302240B245FD3484C3E
:1090C000580A18480024494C590A188902248D4826
:1090D00000004D4C5D0E8D9308240C246FD34E4C34
:1090E0005E0E1E4E0C244C4C5C0E1E8C0E248A4EC2
:1090F0000000133CC293802510204D4E5D0A5D4D4B
:109100008E237DF080004E4E5E0A5E4E8A237EF0F6
:1091100080004EDD4E9301246FD2C2938025032040
:10912000D293812501247F4202DB4C4F5617100158
:10913000B2B20809032C7C4080001001B2B20809C9
:109140000628A2B30209032C7C4081001001B2B2B0
:1091500008090C28A2B302090928D2938125062008
:10916000D293802503247C4083001001B2B2080909
:109170000C28A2B302090928D29381250624D29390
:10918000802503207C4087001001B2B208090C281A
:10919000A2B302090928D29381250620D293802503
:1091A00003207C4084001001B2B208090928A2B350
:1091B00002090628D293812503247C4082001001F5
:1091C0007C40860010013B15084C094D4A4E4F4A21
:1091D0005F0E5F4F16244F4F4B4A5B0E1F9B0E24B2
:1091E000052C4F4A5F0E5B4F1624043C4F4A5F0E1E
:1091F0005B4F0E244E4B0D484F4A5F0E1C4F082408
:1092000080131C244F4A5F0E4B4B8F8B0E244F4A0A
:109210005F0E4B4B8F5B08244F4A5F0E5B9F1624FB
:1092200011204F4A5F0E5E4F17245E535EF34F4A84
:109230005F0ECF4E17244A4A5A0ECA431624C9431A
:1092400000000A3C4F4A5F0ECF8B16244B4B085B45
:109250004A4A5A0E8A480A24381710015F4284236A
:109260007FF00F004F931D20C293842306345E428B
:1092700020097EF2C24E6F25053C5E4222097EF235
:10928000C24E6F255E426F2542194E10C24E6F25A9
:10929000B013789CA24320243C406F25B013089A59
:1092A000243C7F537F900700122CC2938423083400
:1092B0004F4F5F0A5E4FC8237EF2C24E6F25073CB8
:1092C0004F4F5F0A5E4F88237EF2C24E6F255E428B
:1092D0006F2542194E10C24E6F25B013789CA243E1
:1092E00020243C406F25B013089A4C431001218282
:1092F00081430200B2B20809022C5C43383C92B3AD
:1093000002090628B2B00001100902284C432F3C84
:10931000B240289600093C4000C0B0139A98B24071
:109320000F031209B240001310098243140981434C
:109330000000023C91530000B190B0040000FA2BF1
:109340001F4102000E4F1E53814E02003F900B0042
:109350000528B240009600095C43093C8293140939
:10936000E42392D30209B240009600094C432152F3
:1093700010013B154F4E5F0E5A4F04800D93032092
:109380007C4007002D3C0F423FF232C20343C293A0
:1093900080250320D2938125032402DF7C42203CD8
:1093A0004B4E5B0A8B930224042402DF7C400300B3
:1093B000173C4B4E5B0A8B4D00244B4E5B0A8B4D8A
:1093C00002244E4E5E0A8E4C04241E435A535A8386
:1093D0000230CA180E5E5A53C2DE300902DF5C4307
:1093E00038171001B29320243124B29009002024B0
:1093F00007287E42B250F8FF2024D2437F25173C35
:10940000B2922024072C5E422024B2432024C2437F
:109410007F250D3C7E42D2936E2505208243202479
:10942000D2437F25043CB2432024C2437F254F43CF
:10943000083C1D4224244F4FEF4D7823925324249F
:109440005F534F9EF62BC24E21091001C2437F2568
:1094500010017B152182064C074D444E184118001F
:1094600019411A000A430B430E410D412D534C4440
:10947000B01394905CB311280F480FD90F93F427C1
:109480000E4A0F4B0A4E0B4F1A530B63099F0328CA
:10949000EB23089EE92F5C430F3C4E440D470C46DE
:1094A000B01372931C9303243C920324043C4C435A
:1094B000033C6C43013C6C422152741710010A12A8
:1094C00021830A423AF232C20343B240289600098D
:1094D00082430809B24080000409B24040080809EC
:1094E00081430000023C91530000B190E02E000047
:1094F000FA2BB240400A0809B240009600098243A4
:109500002824B0138A8EB013149B02DA4C432153E3
:109510003A4110015E4223097EF07F004E4E829E4A
:1095200022241D284F43093C4F4F1D422624DD4F66
:1095300070230000925326245F534F9EF52B4E4E0E
:10954000828E2224829322240524B013789CE24345
:109550007F251001B0136C9CC2437F251001B0130E
:109560006C9CC2437F2510011B153B40081A093C27
:10957000CB9C000001207D535A4B01004A4A0B5AF4
:109580002B533B90FF1A082CCB9C000002204D93DC
:109590000324FB930000EC23CB9C00000720DE4B50
:1095A000010000002B538F4B0000043CCE43000011
:1095B0008F4300001A1710015D428223B013789C7C
:1095C0007D9003000A205F4283254F4F824F202465
:1095D0003C408325B013089A143C0C43043C5F4C78
:1095E00066814F4F0C5F4E4D4D4E7D535E93F72F6E
:1095F0005F4C66814F4F824F20243C506681B013F0
:10960000089A4C4310011B154B4C0C437BF0030094
:109610001A4220013AF00300073C1A530C12C14AC7
:1096200000003C41B013E88C4B4B0B9A02240C9386
:1096300003244B4B0B9A0B2C4B4B0A9BEE2B3A53B0
:109640000C12C14A00003C41B013F68FED3F1A17CF
:109650001001829382231C205F4284237FF00F003D
:109660004F930320B013269C153C7F537F90070037
:10967000112CC293842305344F4F5F0AFFD2C823B5
:10968000043C4F4F5F0AFFD28823B013269C023C54
:10969000B013429C4C431001218381430000023CE3
:1096A00091530000B19060090000FA2BB2B2080992
:1096B000122CB24028960009C2438125C24380255E
:1096C00082430209B2C000011009B2F0FBEB0809A5
:1096D000B24000960009215310014C43F2D0100013
:1096E0003C09033CF2F0FA003E09C29380230334A4
:1096F000D2D33C09023CD2C33C09C2437F254F432D
:10970000043C4F4FCF436F255F537F92FA2BB0132A
:109710004C8FD2B33E09E62F10015F4284237FF0C5
:109720000F004F930320B013269C143C7F537F906F
:109730000700102CC293842306344F4F5F0AFFF0BA
:10974000D700C823053C4F4F5F0AFFF0D70088239E
:10975000B013269C4C4310010A124A43F2D0100069
:109760003C09C2432109E2937F250F20B0131495D1
:10977000C2937F250C20F2900900812308205C42CF
:109780008423B013A49C4A4C023CF2D222094C4AD6
:109790003A4110015B150B4C084D494E064B073CF6
:1097A00007484E490D470C46B013BC83065A4C4936
:1097B000B013008B4A4C0A9307240F460F8B0F5AA5
:1097C000089FEE2B074AED3F0C4756171001F2D0C9
:1097D0000C004A021F4266013FF08FFF3FD020007D
:1097E000824F66011F4268013FF0FFF83FD0000240
:1097F000824F68013D40DC023C40C05DB013F898E8
:109800000C4380009A98C2430202F2430402C2430E
:109810000302F2430502C2432202F2432402C2437E
:109820002302F2432502C2434202F2434402C243EE
:109830004302F24345021001D2438025B2402896EC
:109840000009F2D010003C09F2C040003E09B2C04D
:1098500000011009B2D000016C01F24020003D0966
:10986000B240009600094C4310012183814300005F
:10987000023C91530000B19060090000FA2BB24005
:1098800028960009B2D000040809B2F0F9FF0809CF
:10989000B24000960009215310011F426C013FF0B5
:1098A00000C00F9C0524B2F0FF3F6C0182DC6C010C
:1098B000B2C000016C01053CB2F0F4FF6E01A2C31E
:1098C0000201A2B30201F82F10014C43B2B2080901
:1098D00001285CD3D293812502207CD02000A2B342
:1098E000020902287CD04000D293802502207CD23D
:1098F00010017CD01000100121830F4D44180F5F20
:10990000814F0000B013048C053C034303433F42E6
:109910003F53FE2F2F410E4F3E53814E00000F93B9
:10992000F42321531001F2B0400044810228D243B5
:109930006F25D29382250220E2D36F25B013789C45
:10994000A24320243C406F25B013089A4C431001D9
:109950003E4010000D433C400824B013029C3E42A0
:109960000D433C400024B013029C0F43033CDF43F3
:109970002A241F531F93FB3B10015E4284231D4288
:1099800086231C428223B013729C0C9305203C401A
:109990007725B013F09B023CB013F09B4C431001B1
:1099A0000A1221830A43093C0F4D0F5AE14F000070
:1099B0000F4C0F5AEF4100001A530A9EF52B21530A
:1099C0003A411001B0136C9CD24282236C25B01333
:1099D000269CD2936C250320D2438125023CC243AE
:1099E00081254C431001B2402896000982430209A8
:1099F000B2C000011009B24000960009C24381259F
:109A0000C24380254C431001824C24241F428623EC
:109A1000829F20240528824F2024C2436E25023CC9
:109A2000D2436E258000E4931F4284235F4F2A8136
:109A30004F4F824F20241F4284230F5F1C4F008012
:109A4000B013089A4C431001B0136C9CB290800084
:109A50008223062CD24282233F09B013269C023C6B
:109A6000B013429C4C431001B013789CA2432024B5
:109A7000C2436F25D2426D2570253C406F25B0133F
:109A8000089A4C4310015E4284231D4286235C42A7
:109A900082234C4CB0137E9C0C930224B013089A82
:109AA0004C431001B013789CA2432024C2436F257D
:109AB000D2426D2570253C406F25B013089A4C4367
:109AC0001001B013789CB240090020241C4284236A
:109AD00044180C5C3C504F81B013089A4C43100161
:109AE000F2D010003C09C2432309D2937F25022003
:109AF0008000E493F2D220091001B24028960009B8
:109B0000A2D30209B2D000040809B24000960009AD
:109B10004C431001B240A0991824B24000001A240E
:109B2000B240A0991C24B24000001E241001929360
:109B300082230520C2438225B013269C023CB01329
:109B4000429C4C431001B013EE92F2F09F003E098C
:109B5000F240C4003D09C24380254C43100192935A
:109B600082230520D2438225B013269C023CB013E9
:109B7000429C4C431001B013789CB2401200202448
:109B80003C402B81B013089A4C431001B013789CD1
:109B9000B240290020243C403D81B013089A4C4338
:109BA00010014C4C5C0E8C93082402245C43013C55
:109BB0004C434C4C1001B013EE924C930420B01364
:109BC000D689B013FA9A5C431001B013789C924383
:109BD00020243C406C25B013089A4C4310010F4CD4
:109BE0000F5D033CCC4300001C530C9FFB23100172
:109BF000824C2624924286232224E2437F25800041
:109C0000789C0F4C043CCF4D00001F533E530E93E5
:109C1000FA231001B0136C9CD24284236D25B0133B
:109C2000269C4C431001B2432024C2437F25C243EB
:109C300021091001D2B33E09022CB013429C4C43BF
:109C40001001F2D22009F2D222091001824C2824FC
:109C50004C431001D2436B245C431001B2D000018D
:109C60006C011001B0135C9C5C431001F2D222091C
:109C700010013C402B241001C243230910013C4039
:109C80002B2410015C4310015C4310015C43100164
:109C90005C4310014C4310014C4310018000B09C08
:109CA00080009C9C4C4310015C4310011B1510016B
:049CB000FF3F03432C
:02FFE6004E8249
:02FFFA008683FC
:02FFFE00368249
:0082360147
:00000001FF
